{
  "contractName": "PassportManagement",
  "abi": [
    {
      "inputs": [],
      "stateMutability": "nonpayable",
      "type": "constructor"
    },
    {
      "anonymous": false,
      "inputs": [
        {
          "indexed": true,
          "internalType": "address",
          "name": "user",
          "type": "address"
        },
        {
          "indexed": false,
          "internalType": "uint256",
          "name": "passportId",
          "type": "uint256"
        }
      ],
      "name": "PassportRegistered",
      "type": "event"
    },
    {
      "inputs": [
        {
          "internalType": "string",
          "name": "_name",
          "type": "string"
        },
        {
          "internalType": "uint256",
          "name": "_age",
          "type": "uint256"
        },
        {
          "internalType": "uint256",
          "name": "_birthdate",
          "type": "uint256"
        },
        {
          "internalType": "string",
          "name": "_country",
          "type": "string"
        }
      ],
      "name": "register",
      "outputs": [],
      "stateMutability": "nonpayable",
      "type": "function"
    },
    {
      "inputs": [
        {
          "internalType": "address",
          "name": "_userAddress",
          "type": "address"
        }
      ],
      "name": "verify",
      "outputs": [
        {
          "internalType": "bool",
          "name": "hasPassport",
          "type": "bool"
        },
        {
          "internalType": "string",
          "name": "name",
          "type": "string"
        },
        {
          "internalType": "uint256",
          "name": "age",
          "type": "uint256"
        },
        {
          "internalType": "uint256",
          "name": "birthdate",
          "type": "uint256"
        },
        {
          "internalType": "string",
          "name": "country",
          "type": "string"
        },
        {
          "internalType": "uint256",
          "name": "passportId",
          "type": "uint256"
        }
      ],
      "stateMutability": "view",
      "type": "function",
      "constant": true
    },
    {
      "inputs": [
        {
          "internalType": "address",
          "name": "_newAdmin",
          "type": "address"
        }
      ],
      "name": "addAdmin",
      "outputs": [],
      "stateMutability": "nonpayable",
      "type": "function"
    }
  ],
  "bytecode": "0x608060405234801561001057600080fd5b506001339080600181540180825580915050600190039060005260206000200160009091909190916101000a81548173ffffffffffffffffffffffffffffffffffffffff021916908373ffffffffffffffffffffffffffffffffffffffff16021790555060016002819055506111028061008b6000396000f3fe608060405234801561001057600080fd5b50600436106100415760003560e01c80631bc440091461004657806363a9c3d7146100625780637048027514610097575b600080fd5b610060600480360381019061005b91906108ef565b6100b3565b005b61007c600480360381019061007791906109ec565b610295565b60405161008e96959493929190610ac2565b60405180910390f35b6100b160048036038101906100ac91906109ec565b6104fc565b005b6000803373ffffffffffffffffffffffffffffffffffffffff1673ffffffffffffffffffffffffffffffffffffffff16815260200190815260200160002060050160009054906101000a900460ff1615610142576040517f08c379a000000000000000000000000000000000000000000000000000000000815260040161013990610ba3565b60405180910390fd5b60006040518060c001604052808681526020018581526020018481526020018381526020016002548152602001600115158152509050806000803373ffffffffffffffffffffffffffffffffffffffff1673ffffffffffffffffffffffffffffffffffffffff16815260200190815260200160002060008201518160000190816101cc9190610dcf565b50602082015181600101556040820151816002015560608201518160030190816101f69190610dcf565b506080820151816004015560a08201518160050160006101000a81548160ff0219169083151502179055509050506002600081548092919061023790610ed0565b91905055503373ffffffffffffffffffffffffffffffffffffffff167f33b55498de7dbaf3c4325400a7b126c27b76987595df73c2c6669b64555316a582608001516040516102869190610f18565b60405180910390a25050505050565b60006060600080606060008673ffffffffffffffffffffffffffffffffffffffff163373ffffffffffffffffffffffffffffffffffffffff1614806102df57506102de336106b1565b5b61031e576040517f08c379a000000000000000000000000000000000000000000000000000000000815260040161031590610f7f565b60405180910390fd5b60008060008973ffffffffffffffffffffffffffffffffffffffff1673ffffffffffffffffffffffffffffffffffffffff1681526020019081526020016000206040518060c001604052908160008201805461037990610bf2565b80601f01602080910402602001604051908101604052809291908181526020018280546103a590610bf2565b80156103f25780601f106103c7576101008083540402835291602001916103f2565b820191906000526020600020905b8154815290600101906020018083116103d557829003601f168201915b50505050508152602001600182015481526020016002820154815260200160038201805461041f90610bf2565b80601f016020809104026020016040519081016040528092919081815260200182805461044b90610bf2565b80156104985780601f1061046d57610100808354040283529160200191610498565b820191906000526020600020905b81548152906001019060200180831161047b57829003601f168201915b50505050508152602001600482015481526020016005820160009054906101000a900460ff16151515158152505090508060a00151816000015182602001518360400151846060015185608001519650965096509650965096505091939550919395565b6000805b60018054905081101561059a573373ffffffffffffffffffffffffffffffffffffffff166001828154811061053857610537610f9f565b5b9060005260206000200160009054906101000a900473ffffffffffffffffffffffffffffffffffffffff1673ffffffffffffffffffffffffffffffffffffffff1603610587576001915061059a565b808061059290610ed0565b915050610500565b50806105db576040517f08c379a00000000000000000000000000000000000000000000000000000000081526004016105d290611040565b60405180910390fd5b600073ffffffffffffffffffffffffffffffffffffffff168273ffffffffffffffffffffffffffffffffffffffff160361064a576040517f08c379a0000000000000000000000000000000000000000000000000000000008152600401610641906110ac565b60405180910390fd5b6001829080600181540180825580915050600190039060005260206000200160009091909190916101000a81548173ffffffffffffffffffffffffffffffffffffffff021916908373ffffffffffffffffffffffffffffffffffffffff1602179055505050565b600080600090505b600180549050811015610754578273ffffffffffffffffffffffffffffffffffffffff16600182815481106106f1576106f0610f9f565b5b9060005260206000200160009054906101000a900473ffffffffffffffffffffffffffffffffffffffff1673ffffffffffffffffffffffffffffffffffffffff160361074157600191505061075a565b808061074c90610ed0565b9150506106b9565b50600090505b919050565b6000604051905090565b600080fd5b600080fd5b600080fd5b600080fd5b6000601f19601f8301169050919050565b7f4e487b7100000000000000000000000000000000000000000000000000000000600052604160045260246000fd5b6107c68261077d565b810181811067ffffffffffffffff821117156107e5576107e461078e565b5b80604052505050565b60006107f861075f565b905061080482826107bd565b919050565b600067ffffffffffffffff8211156108245761082361078e565b5b61082d8261077d565b9050602081019050919050565b82818337600083830152505050565b600061085c61085784610809565b6107ee565b90508281526020810184848401111561087857610877610778565b5b61088384828561083a565b509392505050565b600082601f8301126108a05761089f610773565b5b81356108b0848260208601610849565b91505092915050565b6000819050919050565b6108cc816108b9565b81146108d757600080fd5b50565b6000813590506108e9816108c3565b92915050565b6000806000806080858703121561090957610908610769565b5b600085013567ffffffffffffffff8111156109275761092661076e565b5b6109338782880161088b565b9450506020610944878288016108da565b9350506040610955878288016108da565b925050606085013567ffffffffffffffff8111156109765761097561076e565b5b6109828782880161088b565b91505092959194509250565b600073ffffffffffffffffffffffffffffffffffffffff82169050919050565b60006109b98261098e565b9050919050565b6109c9816109ae565b81146109d457600080fd5b50565b6000813590506109e6816109c0565b92915050565b600060208284031215610a0257610a01610769565b5b6000610a10848285016109d7565b91505092915050565b60008115159050919050565b610a2e81610a19565b82525050565b600081519050919050565b600082825260208201905092915050565b60005b83811015610a6e578082015181840152602081019050610a53565b60008484015250505050565b6000610a8582610a34565b610a8f8185610a3f565b9350610a9f818560208601610a50565b610aa88161077d565b840191505092915050565b610abc816108b9565b82525050565b600060c082019050610ad76000830189610a25565b8181036020830152610ae98188610a7a565b9050610af86040830187610ab3565b610b056060830186610ab3565b8181036080830152610b178185610a7a565b9050610b2660a0830184610ab3565b979650505050505050565b7f50617373706f727420616c72656164792065786973747320666f72207468697360008201527f2061646472657373000000000000000000000000000000000000000000000000602082015250565b6000610b8d602883610a3f565b9150610b9882610b31565b604082019050919050565b60006020820190508181036000830152610bbc81610b80565b9050919050565b7f4e487b7100000000000000000000000000000000000000000000000000000000600052602260045260246000fd5b60006002820490506001821680610c0a57607f821691505b602082108103610c1d57610c1c610bc3565b5b50919050565b60008190508160005260206000209050919050565b60006020601f8301049050919050565b600082821b905092915050565b600060088302610c857fffffffffffffffffffffffffffffffffffffffffffffffffffffffffffffffff82610c48565b610c8f8683610c48565b95508019841693508086168417925050509392505050565b6000819050919050565b6000610ccc610cc7610cc2846108b9565b610ca7565b6108b9565b9050919050565b6000819050919050565b610ce683610cb1565b610cfa610cf282610cd3565b848454610c55565b825550505050565b600090565b610d0f610d02565b610d1a818484610cdd565b505050565b5b81811015610d3e57610d33600082610d07565b600181019050610d20565b5050565b601f821115610d8357610d5481610c23565b610d5d84610c38565b81016020851015610d6c578190505b610d80610d7885610c38565b830182610d1f565b50505b505050565b600082821c905092915050565b6000610da660001984600802610d88565b1980831691505092915050565b6000610dbf8383610d95565b9150826002028217905092915050565b610dd882610a34565b67ffffffffffffffff811115610df157610df061078e565b5b610dfb8254610bf2565b610e06828285610d42565b600060209050601f831160018114610e395760008415610e27578287015190505b610e318582610db3565b865550610e99565b601f198416610e4786610c23565b60005b82811015610e6f57848901518255600182019150602085019450602081019050610e4a565b86831015610e8c5784890151610e88601f891682610d95565b8355505b6001600288020188555050505b505050505050565b7f4e487b7100000000000000000000000000000000000000000000000000000000600052601160045260246000fd5b6000610edb826108b9565b91507fffffffffffffffffffffffffffffffffffffffffffffffffffffffffffffffff8203610f0d57610f0c610ea1565b5b600182019050919050565b6000602082019050610f2d6000830184610ab3565b92915050565b7f556e617574686f72697a65642061636365737300000000000000000000000000600082015250565b6000610f69601383610a3f565b9150610f7482610f33565b602082019050919050565b60006020820190508181036000830152610f9881610f5c565b9050919050565b7f4e487b7100000000000000000000000000000000000000000000000000000000600052603260045260246000fd5b7f4f6e6c792061646d696e2063616e20706572666f726d2074686973206163746960008201527f6f6e000000000000000000000000000000000000000000000000000000000000602082015250565b600061102a602283610a3f565b915061103582610fce565b604082019050919050565b600060208201905081810360008301526110598161101d565b9050919050565b7f496e76616c696420616464726573730000000000000000000000000000000000600082015250565b6000611096600f83610a3f565b91506110a182611060565b602082019050919050565b600060208201905081810360008301526110c581611089565b905091905056fea26469706673582212205d1fa4e763039d0457fbd16e9f875dea7608a5cab170377c2b9d80116d04c0f164736f6c63430008100033",
  "immutableReferences": {},
  "source": "// SPDX-License-Identifier: MIT\r\npragma solidity ^0.8.16;\r\n\r\ncontract PassportManagement {\r\n    struct Passport {\r\n        string name;\r\n        uint age;\r\n        uint birthdate;\r\n        string country;\r\n        uint passportId;\r\n        bool exists;\r\n    }\r\n    \r\n    // Mapping from address to passport data\r\n    mapping(address => Passport) private passports;\r\n    \r\n    // Array to store authorized admins\r\n    address[] private admins;\r\n    \r\n    // Counter for passport IDs\r\n    uint private passportIdCounter;\r\n    \r\n    // Events\r\n    event PassportRegistered(address indexed user, uint passportId);\r\n    \r\n    constructor() {\r\n        // Add contract deployer as the first admin\r\n        admins.push(msg.sender);\r\n        passportIdCounter = 1;\r\n    }\r\n    \r\n    modifier onlyAdmin() {\r\n        bool isAdminFlag = false;\r\n        for(uint i = 0; i < admins.length; i++) {\r\n            if(admins[i] == msg.sender) {\r\n                isAdminFlag = true;\r\n                break;\r\n            }\r\n        }\r\n        require(isAdminFlag, \"Only admin can perform this action\");\r\n        _;\r\n    }\r\n    \r\n    function register(\r\n        string memory _name,\r\n        uint _age,\r\n        uint _birthdate,\r\n        string memory _country\r\n    ) public {\r\n        require(!passports[msg.sender].exists, \"Passport already exists for this address\");\r\n        \r\n        Passport memory newPassport = Passport({\r\n            name: _name,\r\n            age: _age,\r\n            birthdate: _birthdate,\r\n            country: _country,\r\n            passportId: passportIdCounter,\r\n            exists: true\r\n        });\r\n        \r\n        passports[msg.sender] = newPassport;\r\n        passportIdCounter++;\r\n        \r\n        emit PassportRegistered(msg.sender, newPassport.passportId);\r\n    }\r\n    \r\n    function verify(address _userAddress) public view returns (\r\n        bool hasPassport,\r\n        string memory name,\r\n        uint age,\r\n        uint birthdate,\r\n        string memory country,\r\n        uint passportId\r\n    ) {\r\n        require(\r\n            msg.sender == _userAddress || isAdmin(msg.sender),\r\n            \"Unauthorized access\"\r\n        );\r\n        \r\n        Passport memory passport = passports[_userAddress];\r\n        \r\n        return (\r\n            passport.exists,\r\n            passport.name,\r\n            passport.age,\r\n            passport.birthdate,\r\n            passport.country,\r\n            passport.passportId\r\n        );\r\n    }\r\n    \r\n    function addAdmin(address _newAdmin) public onlyAdmin {\r\n        require(_newAdmin != address(0), \"Invalid address\");\r\n        admins.push(_newAdmin);\r\n    }\r\n    \r\n    function isAdmin(address _address) private view returns (bool) {\r\n        for(uint i = 0; i < admins.length; i++) {\r\n            if(admins[i] == _address) {\r\n                return true;\r\n            }\r\n        }\r\n        return false;\r\n    }\r\n}",
  "sourcePath": "C:\\Users\\kamha\\Blockchain\\Passport_Management_RA_Recruitment\\passport-dapp\\contracts\\PassportManagement.sol",
  "compiler": {
    "name": "solc",
    "version": "0.8.16+commit.07a7930e.Emscripten.clang"
  },
  "schemaVersion": "3.4.16",
  "updatedAt": "2024-12-14T19:41:46.060Z",
  "networkType": "ethereum",
  "devdoc": {
    "kind": "dev",
    "methods": {},
    "version": 1
  },
  "userdoc": {
    "kind": "user",
    "methods": {},
    "version": 1
  }
}