{
  "contractName": "PassportManagement",
  "abi": [
    {
      "inputs": [
        {
          "internalType": "address",
          "name": "_admin",
          "type": "address"
        }
      ],
      "stateMutability": "nonpayable",
      "type": "constructor"
    },
    {
      "anonymous": false,
      "inputs": [
        {
          "indexed": true,
          "internalType": "address",
          "name": "user",
          "type": "address"
        },
        {
          "indexed": false,
          "internalType": "uint256",
          "name": "passportId",
          "type": "uint256"
        }
      ],
      "name": "PassportRegistered",
      "type": "event"
    },
    {
      "inputs": [
        {
          "internalType": "string",
          "name": "_name",
          "type": "string"
        },
        {
          "internalType": "uint256",
          "name": "_age",
          "type": "uint256"
        },
        {
          "internalType": "uint256",
          "name": "_birthdate",
          "type": "uint256"
        },
        {
          "internalType": "string",
          "name": "_country",
          "type": "string"
        }
      ],
      "name": "register",
      "outputs": [],
      "stateMutability": "nonpayable",
      "type": "function"
    },
    {
      "inputs": [
        {
          "internalType": "address",
          "name": "_userAddress",
          "type": "address"
        },
        {
          "internalType": "uint256",
          "name": "_age",
          "type": "uint256"
        }
      ],
      "name": "verify",
      "outputs": [
        {
          "internalType": "bool",
          "name": "hasPassport",
          "type": "bool"
        },
        {
          "internalType": "string",
          "name": "name",
          "type": "string"
        },
        {
          "internalType": "uint256",
          "name": "age",
          "type": "uint256"
        },
        {
          "internalType": "uint256",
          "name": "birthdate",
          "type": "uint256"
        },
        {
          "internalType": "string",
          "name": "country",
          "type": "string"
        },
        {
          "internalType": "uint256",
          "name": "passportId",
          "type": "uint256"
        }
      ],
      "stateMutability": "view",
      "type": "function",
      "constant": true
    }
  ],
  "bytecode": "0x60806040523480156200001157600080fd5b50604051620010a4380380620010a4833981810160405281019062000037919062000163565b600073ffffffffffffffffffffffffffffffffffffffff168173ffffffffffffffffffffffffffffffffffffffff1603620000a9576040517f08c379a0000000000000000000000000000000000000000000000000000000008152600401620000a090620001f6565b60405180910390fd5b80600160006101000a81548173ffffffffffffffffffffffffffffffffffffffff021916908373ffffffffffffffffffffffffffffffffffffffff16021790555060016002819055505062000218565b600080fd5b600073ffffffffffffffffffffffffffffffffffffffff82169050919050565b60006200012b82620000fe565b9050919050565b6200013d816200011e565b81146200014957600080fd5b50565b6000815190506200015d8162000132565b92915050565b6000602082840312156200017c576200017b620000f9565b5b60006200018c848285016200014c565b91505092915050565b600082825260208201905092915050565b7f496e76616c69642061646d696e20616464726573730000000000000000000000600082015250565b6000620001de60158362000195565b9150620001eb82620001a6565b602082019050919050565b600060208201905081810360008301526200021181620001cf565b9050919050565b610e7c80620002286000396000f3fe608060405234801561001057600080fd5b50600436106100365760003560e01c80631bc440091461003b5780636704fe9f14610057575b600080fd5b610055600480360381019061005091906106f1565b61008c565b005b610071600480360381019061006c91906107ee565b61026e565b604051610083969594939291906108d7565b60405180910390f35b6000803373ffffffffffffffffffffffffffffffffffffffff1673ffffffffffffffffffffffffffffffffffffffff16815260200190815260200160002060050160009054906101000a900460ff161561011b576040517f08c379a0000000000000000000000000000000000000000000000000000000008152600401610112906109b8565b60405180910390fd5b60006040518060c001604052808681526020018581526020018481526020018381526020016002548152602001600115158152509050806000803373ffffffffffffffffffffffffffffffffffffffff1673ffffffffffffffffffffffffffffffffffffffff16815260200190815260200160002060008201518160000190816101a59190610be4565b50602082015181600101556040820151816002015560608201518160030190816101cf9190610be4565b506080820151816004015560a08201518160050160006101000a81548160ff0219169083151502179055509050506002600081548092919061021090610ce5565b91905055503373ffffffffffffffffffffffffffffffffffffffff167f33b55498de7dbaf3c4325400a7b126c27b76987595df73c2c6669b64555316a5826080015160405161025f9190610d2d565b60405180910390a25050505050565b6000606060008060606000806000808a73ffffffffffffffffffffffffffffffffffffffff1673ffffffffffffffffffffffffffffffffffffffff1681526020019081526020016000206040518060c00160405290816000820180546102d390610a07565b80601f01602080910402602001604051908101604052809291908181526020018280546102ff90610a07565b801561034c5780601f106103215761010080835404028352916020019161034c565b820191906000526020600020905b81548152906001019060200180831161032f57829003601f168201915b50505050508152602001600182015481526020016002820154815260200160038201805461037990610a07565b80601f01602080910402602001604051908101604052809291908181526020018280546103a590610a07565b80156103f25780601f106103c7576101008083540402835291602001916103f2565b820191906000526020600020905b8154815290600101906020018083116103d557829003601f168201915b50505050508152602001600482015481526020016005820160009054906101000a900460ff16151515158152505090508060a00151610466576040517f08c379a000000000000000000000000000000000000000000000000000000000815260040161045d90610dba565b60405180910390fd5b600160009054906101000a900473ffffffffffffffffffffffffffffffffffffffff1673ffffffffffffffffffffffffffffffffffffffff163373ffffffffffffffffffffffffffffffffffffffff16036104e85760018160000151826020015183604001518460600151856080015196509650965096509650965050610557565b8781602001511461052e576040517f08c379a000000000000000000000000000000000000000000000000000000000815260040161052590610e26565b60405180910390fd5b600181600001518260200151836040015184606001518560800151965096509650965096509650505b9295509295509295565b6000604051905090565b600080fd5b600080fd5b600080fd5b600080fd5b6000601f19601f8301169050919050565b7f4e487b7100000000000000000000000000000000000000000000000000000000600052604160045260246000fd5b6105c88261057f565b810181811067ffffffffffffffff821117156105e7576105e6610590565b5b80604052505050565b60006105fa610561565b905061060682826105bf565b919050565b600067ffffffffffffffff82111561062657610625610590565b5b61062f8261057f565b9050602081019050919050565b82818337600083830152505050565b600061065e6106598461060b565b6105f0565b90508281526020810184848401111561067a5761067961057a565b5b61068584828561063c565b509392505050565b600082601f8301126106a2576106a1610575565b5b81356106b284826020860161064b565b91505092915050565b6000819050919050565b6106ce816106bb565b81146106d957600080fd5b50565b6000813590506106eb816106c5565b92915050565b6000806000806080858703121561070b5761070a61056b565b5b600085013567ffffffffffffffff81111561072957610728610570565b5b6107358782880161068d565b9450506020610746878288016106dc565b9350506040610757878288016106dc565b925050606085013567ffffffffffffffff81111561077857610777610570565b5b6107848782880161068d565b91505092959194509250565b600073ffffffffffffffffffffffffffffffffffffffff82169050919050565b60006107bb82610790565b9050919050565b6107cb816107b0565b81146107d657600080fd5b50565b6000813590506107e8816107c2565b92915050565b600080604083850312156108055761080461056b565b5b6000610813858286016107d9565b9250506020610824858286016106dc565b9150509250929050565b60008115159050919050565b6108438161082e565b82525050565b600081519050919050565b600082825260208201905092915050565b60005b83811015610883578082015181840152602081019050610868565b60008484015250505050565b600061089a82610849565b6108a48185610854565b93506108b4818560208601610865565b6108bd8161057f565b840191505092915050565b6108d1816106bb565b82525050565b600060c0820190506108ec600083018961083a565b81810360208301526108fe818861088f565b905061090d60408301876108c8565b61091a60608301866108c8565b818103608083015261092c818561088f565b905061093b60a08301846108c8565b979650505050505050565b7f50617373706f727420616c72656164792065786973747320666f72207468697360008201527f2061646472657373000000000000000000000000000000000000000000000000602082015250565b60006109a2602883610854565b91506109ad82610946565b604082019050919050565b600060208201905081810360008301526109d181610995565b9050919050565b7f4e487b7100000000000000000000000000000000000000000000000000000000600052602260045260246000fd5b60006002820490506001821680610a1f57607f821691505b602082108103610a3257610a316109d8565b5b50919050565b60008190508160005260206000209050919050565b60006020601f8301049050919050565b600082821b905092915050565b600060088302610a9a7fffffffffffffffffffffffffffffffffffffffffffffffffffffffffffffffff82610a5d565b610aa48683610a5d565b95508019841693508086168417925050509392505050565b6000819050919050565b6000610ae1610adc610ad7846106bb565b610abc565b6106bb565b9050919050565b6000819050919050565b610afb83610ac6565b610b0f610b0782610ae8565b848454610a6a565b825550505050565b600090565b610b24610b17565b610b2f818484610af2565b505050565b5b81811015610b5357610b48600082610b1c565b600181019050610b35565b5050565b601f821115610b9857610b6981610a38565b610b7284610a4d565b81016020851015610b81578190505b610b95610b8d85610a4d565b830182610b34565b50505b505050565b600082821c905092915050565b6000610bbb60001984600802610b9d565b1980831691505092915050565b6000610bd48383610baa565b9150826002028217905092915050565b610bed82610849565b67ffffffffffffffff811115610c0657610c05610590565b5b610c108254610a07565b610c1b828285610b57565b600060209050601f831160018114610c4e5760008415610c3c578287015190505b610c468582610bc8565b865550610cae565b601f198416610c5c86610a38565b60005b82811015610c8457848901518255600182019150602085019450602081019050610c5f565b86831015610ca15784890151610c9d601f891682610baa565b8355505b6001600288020188555050505b505050505050565b7f4e487b7100000000000000000000000000000000000000000000000000000000600052601160045260246000fd5b6000610cf0826106bb565b91507fffffffffffffffffffffffffffffffffffffffffffffffffffffffffffffffff8203610d2257610d21610cb6565b5b600182019050919050565b6000602082019050610d4260008301846108c8565b92915050565b7f4e6f2070617373706f727420666f756e6420666f72207468697320616464726560008201527f7373000000000000000000000000000000000000000000000000000000000000602082015250565b6000610da4602283610854565b9150610daf82610d48565b604082019050919050565b60006020820190508181036000830152610dd381610d97565b9050919050565b7f496e76616c6964206167652070726f7669646564000000000000000000000000600082015250565b6000610e10601483610854565b9150610e1b82610dda565b602082019050919050565b60006020820190508181036000830152610e3f81610e03565b905091905056fea2646970667358221220615b1799cd21cad6163f1c7fda7e16041e0cf0a5164f70e733493cc71eca3d6c64736f6c63430008100033",
  "immutableReferences": {},
  "source": "// SPDX-License-Identifier: MIT\r\npragma solidity ^0.8.16;\r\n\r\ncontract PassportManagement {\r\n    struct Passport {\r\n        string name;\r\n        uint age;\r\n        uint birthdate;\r\n        string country;\r\n        uint passportId;\r\n        bool exists;\r\n    }\r\n    \r\n    // Mapping from address to passport data\r\n    mapping(address => Passport) private passports;\r\n    \r\n    // Single admin address\r\n    address private admin;\r\n    \r\n    // Counter for passport IDs\r\n    uint private passportIdCounter;\r\n    \r\n    // Events\r\n    event PassportRegistered(address indexed user, uint passportId);\r\n    \r\n    constructor(address _admin) {\r\n        require(_admin != address(0), \"Invalid admin address\");\r\n        admin = _admin;\r\n        passportIdCounter = 1;\r\n    }\r\n    \r\n    function register(\r\n        string memory _name,\r\n        uint _age,\r\n        uint _birthdate,\r\n        string memory _country\r\n    ) public {\r\n        require(!passports[msg.sender].exists, \"Passport already exists for this address\");\r\n        \r\n        Passport memory newPassport = Passport({\r\n            name: _name,\r\n            age: _age,\r\n            birthdate: _birthdate,\r\n            country: _country,\r\n            passportId: passportIdCounter,\r\n            exists: true\r\n        });\r\n        \r\n        passports[msg.sender] = newPassport;\r\n        passportIdCounter++;\r\n        \r\n        emit PassportRegistered(msg.sender, newPassport.passportId);\r\n    }\r\n    \r\n    function verify(address _userAddress, uint _age) public view returns (\r\n        bool hasPassport,\r\n        string memory name,\r\n        uint age,\r\n        uint birthdate,\r\n        string memory country,\r\n        uint passportId\r\n    ) {\r\n        Passport memory passport = passports[_userAddress];\r\n        require(passport.exists, \"No passport found for this address\");\r\n\r\n        // Admin can verify without age check\r\n        if (msg.sender == admin) {\r\n            return (\r\n                true,\r\n                passport.name,\r\n                passport.age,\r\n                passport.birthdate,\r\n                passport.country,\r\n                passport.passportId\r\n            );\r\n        }\r\n        \r\n        // All other users (including passport owner) need correct age to verify\r\n        require(passport.age == _age, \"Invalid age provided\");\r\n        \r\n        return (\r\n            true,\r\n            passport.name,\r\n            passport.age,\r\n            passport.birthdate,\r\n            passport.country,\r\n            passport.passportId\r\n        );\r\n    }\r\n}",
  "sourcePath": "C:\\Users\\kamha\\Blockchain\\Passport_Management_RA_Recruitment\\passport-dapp\\contracts\\PassportManagement.sol",
  "compiler": {
    "name": "solc",
    "version": "0.8.16+commit.07a7930e.Emscripten.clang"
  },
  "schemaVersion": "3.4.16",
  "updatedAt": "2024-12-14T23:21:00.239Z",
  "networkType": "ethereum",
  "devdoc": {
    "kind": "dev",
    "methods": {},
    "version": 1
  },
  "userdoc": {
    "kind": "user",
    "methods": {},
    "version": 1
  }
}